:040000000C94D81D67
:100004000C9400000C9400000C9400000C9400006C
:100014000C9400000C9400000C94E9260C9400004D
:100024000C9400000C94AD240C9400000C9400007B
:100034000C9400000C9400000C9400000C9400003C
:100044000C9400000C9400000C9400000C9400002C
:1000540080101000000000000000000000000000FC
:10006400000000000000000000000000000000008C
:100074000000007CF80000007C0F80183E38030765
:10008400C73C061C200080001C0E04180C10030141
:100094008204061620004000161608000C10000109
:1000A4008218061320000000161600C00620000067
:1000B400C400061321F9E7B816161E580627770060
:1000C400C43C0611A333331013263398064333007C
:1000D400C8660610E33033A01326331803433300F5
:1000E40068660610E331F1A0134633180343330066
:1000F400687E061061E331C011C6331801833300F2
:1001040030600010220330C011863318018333009D
:100114003062067C23F1F8C07C9F9E3C0181FB8009
:10012400303C060003F800800000000000000000DE
:10013400000000000208068000000000000000002B
:100144000000000001F007000000000000000000B3
:10015400000000002810050000000000000000005E
:10016400003FCC00000036CC000000264000000018
:100174000600000000061DD98786060CEECCC606D4
:100184000CCCCCC0060CCCCFC0060CCCCC00060CDE
:10019400CCCC460F1EEEE7860000000000000000F5
:1001A40000000000000000004010080000000000F3
:1001B4000000000000000000000000F9F1C0000F82
:1001C4009F000030C140000384000030C2200002C0
:1001D400C4000030C000000264000030C3CECC0272
:1001E400643CF73FC667760234666230C6666602D0
:1001F4001C067430C66666021C3E3430C66666024F
:100204000C663830C6666602046618F9F3CF770FB9
:10021400843F1800000000000000100000000000EF
:100224000000D000000000000000E00058100B00A7
:1002340000000000000000000000000000000000BA
:1002440000000000003FC00000000007E0C03800CC
:100254000C60000000000180C018000C3000000099
:100264000001800018000C180001800001800018B3
:10027400000C1BBA3CB61F8181C79B180C199A67E6
:100284003B330180CD9D980C199E6633330180CC9D
:1002940019800C19986633330180CC19800C31987D
:1002A40066331E0184CC19800C6198663320018466
:1002B400CC99983FC0FC3C7BBF07FDE73DD80000CC
:1002C4000000003F800000000000000000002080CB
:1002D40000C0000000000000001F0000C00000007B
:1002E40040100803800000000000000440000000EB
:1002F40000000001000007E0C03800030000018096
:10030400C0180003800001800018000580000180EF
:1003140000180004C7660181C79B1804C3BB018091
:10032400CD9D980863330180CC19800FE33301809D
:10033400CC19800873330184CC19801033330184C1
:10034400CC99983C7BBB87FDE73DD80000000000BA
:100354000000000000000000C000000000000000D9
:10036400C00000002010040000000000000000F99C
:10037400F00000384240002C418000264000002656
:1003840043CECC2346677621C0666621C3E6662049
:10039400C6666620466666F843F7770000000000EC
:1003A40000000000000000004010280000000000D1
:1003B4000000000000000000000000000000000039
:1003C40000000000000040000000000000000000E9
:1003D4000000000000000000000000000000000019
:1003E40000000000000000000000000000002000E9
:1003F4000000000000000000000000FF00000000FA
:10040400000000000000E0000608000000000000FA
:1004140007FC000001C100000001C0000001C00091
:1004240000E008DB00480000004800000400600011
:1004340006140000003200000186000000C28000A3
:100444000000C3200000C0000060149900300000C8
:10045400003000004200600000220000002E000076
:100464000186000003E440000000C2E00000C00078
:10047400046022180000000000000000C0006000BA
:1004840000000000000000000186000000C0000021
:100494000000C0000000C0000C6000187679D9810B
:1004A400D879D983F6EC6C0F763CEC0ECC3CEC009E
:1004B400018C3C3C07C79DC1D87ED9C781F8D9DCE3
:1004C4003F6C3C183ACCEEC0ECCCEEC0C676760657
:1004D400266676077666760001F8666C0CCCCCC08E
:1004E400ECCCECCCC0CCECCC0C766618300CCCC08C
:1004F400CC0CCCC0C6666603466666066606660015
:10050400018C06600CC0CCC0CCCCCCC0C0CCCCCC54
:100514000C666618307CCCC0CC7CCCC0C666660346
:10052400467E6606663E660F01863E600CC7CCC0FA
:10053400CCCCCCC7C0CCCCCC0C667E1830CCCCC0D8
:10054400CCCCCCC0C66666034660660666666600AA
:10055400018666600CCCCCC0CC78CCCCC0CCCCCCE6
:100564000C66601830CCCCC0CCCCCCC0D66666014E
:100574008662660666666600018666640CCCCCC03C
:10058400CC80CCCCC0CCCCCC0D66627E787EEEE147
:10059400EE7EEEE0677777018F3CF70F773F7700C9
:1005A40007FC3F3807E7E7E1EEFCEEE7E0F9EE7E13
:1005B40006773C000000000000000000000000007E
:1005C4000000000000000000000000000000000027
:1005D40000FE000000C00000000000000000000059
:1005E4000000000000000000000000000000000007
:1005F40000001800000000000082000000C000009D
:1006040000000000000000000000000000000000E6
:1006140000000000000000000000180000000000BE
:10062400007C000001E00000000000003010260003
:1006340000000000000000000000000000000000B6
:1006440000000000000000000000000000000000A6
:100654000000000000000000000000000000000096
:100664000000000000000000000000000000000086
:1006740000000000000000000000001CB8000000A2
:100684000000000000000000000000060000200040
:100694000E07000000000381803800000000000005
:1006A40003639802000000100000000048000000EE
:1006B40001060000600006030000000001818018AC
:1006C400000000000000036198040000000800001E
:1006D400000030000000020000007000060300006B
:1006E40000001180001800000000000003C0980002
:1006F40000000000000000000000000000300000C6
:10070400B000060300000000318000180000000162
:10071400800003C01B3B8F0766775D87E1D879D9DA
:1007240081D98796000098EC067361E761F8FDB300
:10073400BB1B03DDBA3CB61F83C01D999B03BB33AF
:100744004ECCC0ECCCEEC0EECCE60000987606436E
:10075400B333B33031D99D9D81899A673B3303C04C
:10076400199998033333CCCCC0CC0CCCC0CCCCC6B8
:1007740000010C660683303333303199999980D166
:100784009E66333303C01999980333330CCCC0CC21
:100794007CCCC0CCCCC60F01FC66078331F333306C
:1007A4003199999980D19866333303609999980364
:1007B40033330CC780CCCCCCC0CCCCC600010E6685
:1007C40006C3333331E03199999980D19866331E49
:1007D40000611999990333330CC800CCCCCCC0CC3C
:1007E400CCC6000206660663333332003599999904
:1007F400806198663320031E3DCFCE07BB9F9EEFDA
:10080400C1EE7EEEE1EEE78F00078F770F77B9FB3D
:10081400BBF019DDDDDDC060FC3C7BBF03000000E4
:1008240000000000000FE0000000000000000000D5
:1008340000000000000003F80000000000000000B9
:10084400003F8000000000000000000820000000BD
:100854000000000000000000000000000208000189
:10086400800000000018002080000000000000004C
:100874000007C000000000000000000000000000AD
:10088400000001F00001800000000018001F0000BB
:10089400E8101D000020000000000200000000001D
:1008A40000000000000000000000008000000000C4
:1008B40000004000000000040000000000000000F0
:1008C400000000000000000100000000007F87001D
:1008D4000000300070000000C000F9E00380000058
:1008E400000000038000070E00066D85000008303C
:1008F4000050000020C00030800280000000000092
:10090400018900030A00064C88880410001088003E
:100914000810000019000440000000000007C60091
:10092400031100060C00180C0180300000180000B0
:100934000019000000000000000001800003000016
:10094400060C0F3E1F3CB07CF3B03E79C0000E1D78
:10095400C79D8078F3B0FC0F8F0F031E1E060C1981
:10096400980C67303199D818CCC0000C0CCCCEC090
:10097400C999D99819999B033336060C19980C66B2
:1009840030301998180CC0000C0CC0CCC0E0199978
:1009940098198198033330060C1F980C663030F98F
:1009A40098187CC1E0170CC7CCC070F99998198FBE
:1009B40098033330060C18180C663031999818CC0B
:1009C400C000130CCCCCC0399998F0199998033312
:1009D40030000C189A0D66303599981ACCC0006115
:1009E4008CCCCCC099999900199999033332061E7D
:1009F4000F0C063C7818FDDC0C7EE000F3E7E7EE14
:100A0400E0F0FDDDF80FCFCE079E1C0600000000CD
:100A140000000000000000000000000000000000D2
:100A240001FC0000000000000000000000000000C5
:100A340000000000000000000000000000010400AD
:100A44000000000C00000000000000000000000096
:100A54000000000000000000000000F8000000009A
:100A64000C000000E8101D00000000000000000061
:100A74000000000000000000000000000000000072
:100A8400040000000000000000000000000000005E
:100A9400000000000000000000000000000800004A
:100AA400007CF800000000001838000038000380C3
:100AB40000007000070000000070E0000E381C21E8
:100AC40020000000041818000018000180200030E5
:100AD40020030000000030A0001F7C1620C000008E
:100AE40000080018000018000180400030100300C6
:100AF400000000F910003FFE13200000000000C0B9
:100B040018000018000180000030000300000000FD
:100B14003000003FFE1321E76607661E581B0F3B9B
:100B24001B03F1B3B8F03E7763601E7601F1E76012
:100B34003FFE11A333BB03BB33981D999D9D81993F
:100B4400D999B03333B3B0333B033333B01FFC1004
:100B5400E033330333331819819999819999998032
:100B6400333333300333033333300FF810E1F333CB
:100B740003333318198F99998199999980333333B1
:100B8400301F330333F33007F0106333330333334D
:100B9400181999999981999999803333333033335A
:100BA4000333033003E01023333303333318199929
:100BB40099998199999990333333303333033313AB
:100BC4003001C07C21FBBB87BB9E3C3DCFDDDDC13A
:100BD400F3DCFCE02E7FBBB81FBB81F9E7B80080D3
:100BE4000000000000000000000000000180000080
:100BF40000000000000000000000000000000000F1
:100C04000000000000000600000180000000000059
:100C140000000000000000000000000000000000D0
:100C240000000006000003C00000000000000000F7
:100C34000000000000000000E8101D00000000009B
:100C440000000000000000000000000000000000A0
:100C54000000000001000700000000000000000088
:100C64000000000000000000000000000000000080
:100C740000008008807CF800000000000E000003E3
:100C840000700700000000700000000000000E006B
:100C940010401C2000800000000A00000300300304
:100CA40000000000300400000020000A001040167C
:100CB400200040000000110000000030030000008C
:100CC4000030080000004000110070701320000084
:100CD40000000000000000003003000000003000AD
:100CE4000000000000000088881321F9E7B87BB7F2
:100CF4001E7607BB76360361E1E07E367701D7774F
:100D0400B87B9E01070411A33333101A33333B031A
:100D1400133B3B03B33330333B33033333103133AF
:100D240001050410E33033A01C33033301A3333330
:100D340003333030333333033333A01A330107041E
:100D440010E331F1A00C331F3301A33333033331E8
:100D5400F0333333033331A01A3F0088881061E342
:100D640031C00E33333301A33333033333303333DE
:100D740033033331C01A3000707010220330C016B0
:100D840033333300C3333303333330333333033335
:100D940030C00C310010407C23F1F8C0779F9FBB1A
:100DA40080C7BBBB87B9E1F83E7B9F81F1F8C00CDB
:100DB4001E0010400003F800800000000000000046
:100DC4000000000000300000003000800000000837
:100DD40080000208068000000000000000000000FF
:100DE4000000300000003006800000000700000111
:100DF400F007000000000000000000000000007880
:100E040000000078070000000000000070100E00D1
:100E1400001000000000000000000000000000209E
:100E240000000000000000000000003FC3800F9F8E
:100E34000000001C000030E0002642800384000013
:100E44000014000030A00026444402C40000002224
:100E5400000201100006000C0264000000000006FD
:100E640000000006079F02643F6EF73CEC0FB1E7F9
:100E740070060CCC0234666662667606333330063E
:100E84000CCC021C666674666606333330060FCCDF
:100E9400021C6666347E660633F330060C0C020CC4
:100EA4003C6638606606330330060C4D0204406627
:100EB40018626606B313301F87860F847E3F183C82
:100EC400F70339E1F800000000007F001000000083
:100ED40000000000000000004100D00000000000FD
:100EE4000000000000003E00E000000000000000E0
:100EF40088101100006400001E00000000000000C3
:100F04000000000000005C0000020000000000007F
:100F1400000000000000000000000C0000000000C1
:100F24000000000000001C8C380FF0E07CF800008A
:100F3400007C7000000000638C280990A018608079
:100F4400000018200000000061804409911018601E
:100F5400400000182000000000C08000018000183C
:100F6400600000000C4000060000C01C780181E015
:100F740018677761F80C4EE8F2D87EC00CCC018378
:100F8400301FE333B3300C86699CECCCC3CCCC016A
:100F94008330186333333006867998CCCCC18CCC3B
:100FA400018330186333333006866198CCCC618C6E
:100FB400CC01833018633331E003066198CC786147
:100FC4008CCC018330186333320003066198CC80E3
:100FD4001F1E7807E1E07CF9FBBBF00303F0F1EEA0
:100FE400FC00000000000000000003F80000000006
:100FF40000FE0000000000000000000208000000E5
:101004000000820058100B000320000000000000C4
:1010140000000002E00000000000000000000000EA
:1010240000000000000000003F01C0FF300E003F40
:10103400C0F0000C014031B00A000C6010000C023A
:101044002031B011100C3060000C000031B00030C1
:101054000C1800000C03C031B61E7C0C18F3B00C45
:1010640006603F3B33303F9999D80C066030330318
:10107400300C1819980C07E030331F300C18F9980D
:101084000C2600303333300C3199980C2620303341
:1010940033340C6199983FE3C0FC7B9F983FC0FDBB
:1010A400DC00000000000000000000000000000060
:1010B400000C00000000000060100C000020000084
:1010C40000000000000000000040000000000000DC
:1010D4000000007F87001FE00000001F3E00004C5E
:1010E40085000630000000070800004C88880618B8
:1010F400000000058800000C0018060C0000000425
:10110400C800000C0F3E060C7879D804C87E780C11
:1011140019981FCCCCCCEC0468CCCC0C1998060CD8
:10112400CC0CCC0438CCCC0C1F98060CCC7CCC0456
:1011340038CCCC0C18180618CCCCCC041878CC0CB1
:10114400189A0630CCCCCC040880CC3F0F0C1FE09E
:10115400787EEE1F08FC780000000000000000000C
:1011640000FE0000000000000000000000823000CB
:101174000000000000000000007C3000481009005E
:1011840006400000000000000005C0000000000050
:10119400000000000000000000007E0381F1C00395
:1011A400F00000180280608000C000001804406055
:1011B4008000C00000180000310000C000001807C3
:1011C40080313B80C03CEC180CC0321980C066767C
:1011D400180CC01A1980C00666180FC01A1980C0EE
:1011E4003E66184C000C1980C26666184C400C19F7
:1011F40080C266667FC7800C0FC3FE3F7700000085
:1012040000000000000000000000000000000000DA
:1012140060100C000040000000000000000000000E
:101224000080000000000000000000FF0E001FE02E
:1012340000000001FEE000DB0A001B60000000016A
:10124400B6600099111013200000000132600018EC
:101254000030030000000000306000181E7C030E04
:10126400DBBB0FC0306CEE1833300307599D9980F7
:1012740030766618333003061999998030666618FB
:101284003F3003061999998030666618303003069A
:1012940019998F0030666618313403061999900045
:1012A4003066667E1E180FCF0FDDDF80FCF73F002F
:1012B4000000000000001FC000000000000000004B
:1012C40000001040000000000000000000000F803B
:1012D4000000000040102800000000000000000092
:1012E40020000000040000000000000000000000D6
:1012F40000000000000000000000000000000000EA
:1013040000000000000000001000000008000000C1
:1013140000000000000000000000000000000000C9
:10132400000000000000007CF80000000000000144
:10133400C0000700E00000700000000C01C00001C4
:1013440080380001870003E3B0E003E7C000001C1D
:10135400200080000000000140000300A0000030D5
:101364000000000C00C0000180180001850000C1CD
:1013740030A000E100000016200040001000000230
:1013840020002301100000300000000000C0000015
:1013940000180000088000C1011100B10000001312
:1013A4002000000030000000000063000000003056
:1013B4000000000000C000000018000000000062EF
:1013C400000300990000001321F9E7B87DB6EF731C
:1013D400CEC0FB61E761F8361E1E03DDD8D8007B62
:1013E400BB1B03DD8F3B006271E7C0990F3B3011DB
:1013F400A333331031D66626676063B333B3303B0F
:101404003336064CECEC00C99D9D8189999D80641E
:101414003333008D199DD810E33033A031866347F0
:10142400E6606333333330333330038CCCCC007118
:10143400999980D19F99803433F300870F9998103C
:10144400E331F1A031866347E660633333333033ED
:101454003330038CCCCC0071999980D19F9980341E
:1014640033F300870F99981061E331C031866386A6
:10147400066063333331E033333001CCCCCC0039F4
:10148400999980D198198018330300831999981079
:10149400220330C03586618626606B3333320033D5
:1014A400333204CCCCCC6099999980619899801896
:1014B400331340811999987C23F1F8C019C3F1833F
:1014C400CF7037B9E7BBF07B9E1C079EEEEE60F34E
:1014D400DDDDC063CF3DC01879E183E10FDDDC00C1
:1014E40003F8008000000100000000000003F80081
:1014F40000000000000020000000000000000000C8
:1015040000000000000000000208068000000D003A
:1015140000000000000208000C0000000000200091
:10152400000000000000000000C0000000000000F7
:1015340001F0070000000E00000000000001F000B0
:101544000C0000000000400000000000000000004B
:1015540000C0000000000000F0101E0000000000A9
:101564000000000000000000000000000000000077
:101574000000000000000000000000000000000067
:101584000000000000000000000000000000000057
:10159400000000000000003FDC00001C01C38001CB
:1015A400FE0780000000700000001E0007C761C035
:1015B40007CF80000036CC02000C00C2800063001C
:1015C400800000005000000002000182614001C25E
:1015D400000000264C01000C00C4400061830000A0
:1015E4000000880000000C00018202220162000059
:1015F40000060C00000C00C0000060C000000000E9
:1016040000000000000000C40006013200000006D3
:101614000D879D8D80C79F8060C79D87E078F3B05C
:10162400FC0F1E7600C4E3CF81321E7660060ECC1A
:10163400CECEC0CCCCC1FCCCCECCC0D999D99819D3
:10164400333B00C86666011A333BB0060CC0CCCCF1
:10165400C0C0CCC060C0CCCCC0C19999981C033325
:1016640000686666010E033330060CC7CCCCC0C7D5
:10167400CCC060C7CCCCC0C19999980E1F33006808
:1016840067E6010E1F3330060CCCCCCCC0CCCCC0EA
:10169400618CCCC780C19998F0073333003066065B
:1016A4000106333330060CCCCCCCC0CCCCC0630C9C
:1016B400CCC800C9999900133333003066268102DF
:1016C4003333301F9EE7EEEEE1E7EF81FE07EEEFE6
:1016D400C070F3DDF81E1FBB8030F3C307C21FBB0D
:1016E400B8000000000000000C000000000FE00043
:1016F4000001FC00000000000000000000000000E9
:101704000000000000030C0000000008200060013D
:101714000400000000000180000000000000000040
:10172400000000031E0000000007C0006000F80075
:10173400000000000180000000000000B810170045
:101744000000000000000200000000004000000053
:101754000000000000000000000000000001000084
:10176400000000800000000000000000001F3E0098
:10177400000000E01C000070000E000F8EC3800FFC
:101784009F000000070800200000601400003000E3
:101794000A000304C28003840000000588001000CE
:1017A4000460220002300011000304044402C40057
:1017B400000004C80000000C6000000630000000B7
:1017C4000188000C026400000004C87E79EE1F6CDE
:1017D4003CF70FB6771E1E0189C79F02643CECC01C
:1017E4000468CCCCC40C766662063B333336019075
:1017F400CCCC02346677600438CC0CE80C660674F2
:10180400063333333000D0CCCC021C066660043877
:10181400CC7C680C663E34063333333000D0CFCCF6
:10182400021C3E6660041878CC700C666638063379
:101834003333300060CC0C020C666660040880CC44
:10184400300D66661806B33333320060CC4D0204A3
:101854006666601F08FC7E3006773F18033B9F9E38
:101864001C0061E7860F843F77700000FE002000B3
:101874000000100000000000000000000000000054
:101884000000008201A0000000D000000000000061
:10189400000300000000000000007C01C000000004
:1018A400E000000000000000030000000000000051
:1018B40070100E0000000000000C8000000000000A
:1018C400000000000000000B800000000000007C0D
:1018D400F800000070E0000038000070001C2000D8
:1018E400800030A0010018000050001620004000C5
:1018F4003110108018000088001320000000300010
:10190400300018000000001321F9E7B831E07DBB76
:101914001B03DCF3B811A33333103330319D9D81A5
:1019240089999810E33033A0333031999981D19952
:101934009810E331F1A033F031999980D1F99810DE
:1019440061E331C0330031999980E1819810220319
:1019540030C03310359999806189987C23F1F8C09F
:1019640079E019DDDDC060F0FC0003F800800000C0
:101974000000000040000000020806800000000093
:1019840000034000000001F0070000000000000315
:1019940080000000480E09C3C30FFFFFFFF0F0C32F
:1019A4008198678F1FFFE06619000C3376E9E3C165
:1019B400130C07C412F9D6DDC11104010412DFD7D8
:1019C4003AC11104010002EFD5FAC11000810006EA
:1019D400EF91FAE11001C1000F6B2DF2F11003E158
:1019E400001FB64D65F8E007F7C03FCCB6CBFC004E
:1019F4000FF8007FED7B97FE001FFC30FFF4FDAF76
:101A0400FF0C3FFE79FFF9FEDFFF9E7FFEFBFFFF29
:101A1400FF3FFFBEFF008F10120000000000000017
:101A240000080000080000000000000000000000A2
:101A340000000010000010000000000000F9F00099
:101A440000000F0001C00001C0FF3000000000389A
:101A54004001000030C0014000014031B0000001ED
:101A6400902C4000800030C0022000422031B000A1
:101A740000017026400000006060000000C00031DA
:101A8400B0000000002643F3CF70606EE3C3C1F3DF
:101A9400C031B6770767742346666620606666665B
:101AA400C0C6603F3B3303B33421C6606740606601
:101AB400666600C66030333303333C21C663E340BB
:101AC4006066666600C7E030333303333020C3C634
:101AD400638030C6666600C600303333033330207B
:101AE4004406618030C6666640D620303333033303
:101AF40030F847E3F1800F83F3C38063C0FC7B9F1E
:101B040087B9F80007F0010003000000000000009E
:101B140000000000000004100D000180000000001F
:101B24000000000C0000000003E00E0000C00000F4
:101B340000000000000C00000000B81017000000B6
:101B44000000000000000000000000000000200071
:101B54000000000000000000000000000000000081
:101B64000000000000100000000000F9F000000078
:101B74000063C6000E00000000F81F61C000F9F009
:101B840000003840010000006046000600800000AC
:101B9400381C614000384000002C400080000001E7
:101BA400800006010000002C2C0220002C400000C4
:101BB40026400000000000000006000000002C2C5D
:101BC400000000264000002643F3CF703F63CE0F91
:101BD400C6C3CEC3F02C2CE3CEC02643CECC2346C2
:101BE400666620666666066766676660264C666794
:101BF400602346677621C66067406660660666664F
:101C0400666660264C66666021C0666621C663E32C
:101C1400406663E6066666666660268C67E6602153
:101C2400C3E66620C3C663803C6666066666666372
:101C3400C0238C66066020C6666620440661804028
:101C44006666066666666400230C66266020466641
:101C540066F847E3F1807E73F707CF73CF77E0F937
:101C64003F73CF70F843F7770007F001007F00005F
:101C74000600000007F00000000000000000000063
:101C840004100D00410000060000000410000000D4
:101C94000000000000000003E00E003E00000F0002
:101CA400000003E0000000000000000000009810A5
:101CB40013000000000000000020000020000000CD
:101CC4000000000000000000000000004000004090
:101CD400000000000000003E7C000000000007003F
:101CE400000703800000387000000E100040000060
:101CF400000500000501800000185000000B1000D2
:101D04002000000008800108818000007C88000019
:101D1400099000000000000000030001800000188A
:101D24000000000990FCF3DC0EBB8F0F07CF018F7E
:101D34000F00F8F3B0FC08D19999881999999B037D
:101D440019819999819999D99808719819D01999F3
:101D5400999803198181998199999998087198F8AA
:101D6400D019999998031F818F9981999999980805
:101D740030F198E0199999980318019999819999E2
:101D840098F00811019860199999990358819999C3
:101D940081999999003E11F8FC600F8FCF0E018F45
:101DA40003CFCF00FCF3DDF80001FC00400180000C
:101DB40000000000000000000001FC0001040340DA
:101DC4000180000000000000000000600104000029
:101DD400F8038003C0000000000000000000600061
:101DE400F80050102A00000000000000000000006D
:101DF40000000000000000000000000000000000DF
:101E040000000000000000000000000000000000CE
:101E140000000000000000000000000000000000BE
:101E240000000000000000000000000000000000AE
:101E34000000000000000000007CF8000000003CEE
:101E4400000F81F00000072E000000000001C00315
:101E540080000000C000780000000000001C01C0E9
:101E6400E03C001C200080000004000381C000004E
:101E740018E6008000000000C00280000000C000DE
:101E8400080002000000000C00C0600400162000DE
:101E9400400000180002C2C00000186601000000E3
:101EA4000000C004400000000000300001000000F9
:101EB400000C00C0601800132000000000000002A5
:101EC400C2C000003026000000000000C000000076
:101ED40000000000000000000000000C00C06000D2
:101EE400001321F9E7B81EEE3C02C2C3C00030065D
:101EF400CEE3C1D98780DDC79D81EEDDC1EE781EBA
:101F0400E781D9879D8D80CE6C3C3C11A33333107F
:101F14003666660264C6600030076666C0EECCC0F2
:101F2400CCCCCEC0C4CCC0C4CC0C4CC0EECCCECE39
:101F3400C0C876666610E33033A03066060264C615
:101F440060003006666600CCCCC0CCCCCCC068CC7B
:101F5400C068CC0680C0CCC0CCCCC0D0666666104D
:101F6400E331F1A030663E0268C7E0F030066666F1
:101F740000CCCFC0CCCCCCC068CCC068FC0687C039
:101F8400CCC7CCCCC0F066667E1061E331C030664D
:101F9400660238C600001826666600CCCC00CCCC9D
:101FA400CCC068CCC068C0068CC0CCCCCCCCC0D86B
:101FB40066666010220330C03266660230C62000B6
:101FC4001846666640CCCC40CCCCCCC030CCC030BB
:101FD400C4030CC0CCCCCCCCC0CC6666627C23F1F0
:101FE400F8C01C3F3F0F93F3C000078F73F381EEDB
:101FF400E781E7E79EE0307EE030780307E1EEE733
:10200400EEEEE1EF773C3C0003F8008000000000B6
:1020140000000000000000000000000000000000BC
:1020240000000000000000000000000000000000AC
:10203400000002080680000000000001800000008B
:102044000000000003000000000000000000000089
:1020540000000003000000000000000001F0070081
:1020640000000000000180000000000000000300E8
:102074000000000000000000000000000003000059
:10208400000000000000E0101C0000000000000040
:10209400000000000000000000000001000000003B
:1020A400000000000000000000000000000000002C
:1020B400000000000000000080000000000000009C
:1020C400001F3E00000000180380039701E0018018
:1020D4007007CF8E0072E000F81F600E0007080042
:1020E4002000001801800C73002001803001860A52
:1020F400018E6020381C6006000588001000000076
:1021040001800C3300C0100030018611018660404C
:102114002C2C00060004C8000000000001801813E5
:102124000000300030018600030260002C2C000601
:102134000004C87E79EE07BBB1B0180367707D8FC9
:102144003601861E03006CE02C2CEEC6C00468CC5D
:10215400CCC40C99D9D81803B330319B3B01FE335E
:1021640003007660264C6767600438CC0CE80819D5
:10217400999818033330319833018633030066602D
:10218400264C6666600438CC7C6807199998180355
:10219400333031983301863303006660268C6666DB
:1021A40060041878CC70039999980C1333303198E3
:1021B4003301863301826660238C6666600408807E
:1021C400CC30099999980C233330359933018633EF
:1021D40001846660230C6666601F08FC7E300F3D38
:1021E400DDDC03C7B9F819CE7B87CF9E0078F77082
:1021F400F93F7777700000FE002000000000000027
:1022040000000000000000000000000000000000CA
:102214000000008201A00000000000000000018016
:102224000000000000000000000000000000007C2E
:1022340001C0000000000000000001800000000058
:1022440000000000000000000000981013000000CF
:102254000000000000200000200000010000000039
:1022640000000000000000004000004000000200E8
:102274000000003E7C000000000007000007001C76
:102284000C3800001C0C0E1000400000000500007B
:1022940005000C0C2800000C0C0B100020000000A2
:1022A40008800108808C004400000C0009900000A4
:1022B40000000000000300018C000000000C000975
:1022C40090FCF3DC0EBB8F0F07CF03ED9C79DC1D74
:1022D4008D9C08D19999881999999B0319818ECC61
:1022E400CCCC0ECECC08719819D0199999980319B1
:1022F400818CCCCCCC0CCCCC087198F8D0199999A1
:1023040098031F818CCCFCCC0CCCCC0830F198E029
:10231400199999980318018CCCC0CC0CCCCC081119
:1023240001986019999999035881ACCCC4CC0CCC10
:10233400CC3E11F8FC600F8FCF0E018F00CEEE78EB
:102344007E1EEEEE0001FC00400180000000000053
:1023540000000000000000000104034001800000B0
:10236400000000000000000000000000F8038003EB
:10237400C000000000000000000000000000481041
:10238400290000000000000000000001000000001F
:102394000000000020000000000000000000000019
:1023A4000000000000000000000000000000000029
:1023B40000000000020000000000000000400000D7
:1023C4000000000000000000000000000000000009
:1023D4000000007CF8000000003C000FF83800000A
:1023E400E5C000003807038007000000018000F00A
:1023F400000000000000380381C078001C20008029
:1024040000000400030C2800031CC0100018050180
:102414008005000000018000100004000000001886
:102424000180C008001620004000001800030C447E
:1024340000030CC020001808818008800000000000
:102444000060000200000000180180C0300013206A
:10245400000000000000030C00000604C000001887
:1024640000018000000000000000000000000000E7
:1024740000180180C000001321F9E7B81EEE3C03E8
:102484001878000600D9DC781F0F01BB8F3B03DDF1
:10249400BB83DCF03DCF03B30F3B1B019CD87878A2
:1024A40011A333331036666603F0CC000600ECCC7F
:1024B400D819998199999D818999818998189981C7
:1024C400DD999D9D8190ECCCCC10E33033A0306637
:1024D400060318CC000600CCCCC0199981999999AF
:1024E40080919980D1980D01819981999981A0CC8D
:1024F400CCCC10E331F1A030663E030CCC1E0600B8
:10250400CCCCC019998199999980D19980D1F80D31
:102514000F81998F999981E0CCCCFC1061E331C093
:10252400306666030CCC000304CCCCC019998199A5
:10253400999980D19980D1800D198199999999811E
:10254400B0CCCCC010220330C0326666030CCC0081
:102554000308CCCCC81999819999998061998061B3
:1025640088061981999999998198CCCCC47C23F1D6
:10257400F8C01C3F3F0FF8780000F1EE7E70170F93
:1025840003CFCF3DC060FDC060F0060FC3DDCFDDDB
:10259400DDC3DEEE78780003F80080000000000060
:1025A4000000000000000000000000000000000027
:1025B4000000000000000000000000000000000017
:1025C4000208068000000000000000000000000077
:1025D40000000000000000000000000000000000F7
:1025E40006000000000000000001F00700000000E9
:1025F40000000000000000000000000000000000D7
:1026040000000000000000000006000000000000C0
:102614000000A010140000000000000000000000F2
:1026240000000000000000000000000000000000A6
:1026340000000000000000000000000000F9F000AD
:1026440000000060000E000E00F8EC3800F9F00005
:1026540000384001000000600006400600304C28AD
:1026640000384000002C400080000000001F2006BD
:1026740000304044402C4000002640000000000090
:102684000006000600188000C0264000002643F320
:10269400CF703F63C03EEEC6C0189C79F02643CE8F
:1026A400CC234666662066666066676760190CCC54
:1026B400C02346677621C6606740666060666666CA
:1026C400600D0CCCC021C0666621C663E34066631E
:1026D400E0666666600D0CFCC021C3E66620C3C6D6
:1026E40063803C666066666660060CC0C020C66691
:1026F40066204406618040666066666660060CC4B7
:10270400D020466666F847E3F1807E73F03F777722
:1027140070061E7860F843F7770007F001007F0029
:102724000000000000000000000000000000041091
:102734000D00410000000000000000300000000017
:10274400000003E00E003E00000000000000003026
:10275400000000000000A8101500000000000000A8
:102764000000000000000000000000000000000065
:102774000000000000000000000000000000000055
:102784000000003E7C00000001C000000000038146
:1027940080380039870000000E1000400000C0009F
:1027A400000000018180180019850000640B1000EE
:1027B400200008C0000000000180001800180888EC
:1027C400005C099000000018C00000C000018000F7
:1027D400180018001800000990FCF3DC3ED9DD1E37
:1027E4005B0FC1F3BB1B001B8F3E07B808D199993F
:1027F4008818ECCD339D9981999D9D801999980CE9
:102804009808719819D018CCCF331999819999994E
:10281400801999980E18087198F8D018CCCC3319EF
:10282400998199999980199F9807180830F198E02F
:1028340018CCCC33198F0199999980199818039859
:1028440008110198601ACCCC331990019999998C8C
:1028540019989A09983E11F8FC600CEE7E1E3DDF33
:102864008173DDDDCC3DCF0C0F3C0001FC0040004A
:10287400000000001FC00000000400000000000071
:1028840001040340000000000010400000000400A8
:10289400060000000000F8038000000000000F8024
:1028A40000000008000600000000C010180000002E
:1028B400000000000008000000000000000000000C
:1028C40000000000000000000000000000100000F4
:1028D40000000000000000000000000000F9F0000B
:1028E40000000F0001C001F9DC00001C01F1D870E8
:1028F40001F3E00000384001000030C001400060F6
:102904008C01000C0060985000708000002C400086
:10291400800030C0022000610C02000C006080883E
:1029240080588000002640000000606000000066BF
:102934000C00000C00310001804C8000002643F3A1
:10294400CF70606EE3C3C0680D879D8D803138F30E
:10295400E04C879D98234666662060666666C0786C
:102964000ECCCECEC032199980468CCEEC21C660F6
:10297400674060666666006C0CC0CCCCC01A1999BE
:10298400804380CCCC21C663E34060666666006603
:102994000CC7CCCCC01A19F9804387CCCC20C3C651
:1029A400638030C6666600630CCCCCCCC00C198145
:1029B40080418CCCCC204406618030C66666406180
:1029C4008CCCCCCCC00C1989A0408CCCCCF847E37F
:1029D400F1800F03F3C381FBEEE7EEEEE00C3CF075
:1029E400C1F087EEEE0007F00100060000000000D1
:1029F40000000000000000000000000000000410BF
:102A04000D00030000000000000000000000006052
:102A140000000000000003E00E0001C00000000000
:102A24000000000000000060000000000000C01072
:102A3400180000000000000000200000200000003A
:102A44000000000000000001800000000000000001
:102A540000400000400000000000000000000000F2
:102A6400803E7C000000000007000007000000001A
:102A74000030000000000004300E10004000000090
:102A84000500000500000000103000000000000AEE
:102A9400300B1000200000000880010880000000B6
:102AA400080000000002001100099000000000006E
:102AB4000000030000000000018000000006000088
:102AC400000990FCF3DC0EBB8F0F07CF03B0FDBAF7
:102AD4003CB01E3C3C0FB71E7008D19999881999D7
:102AE400999B031981D9999A673036666606333300
:102AF4003008719819D01999999803198199999E58
:102B0400663030066606333330087198F8D0199968
:102B14009998031F819999986630303E660633333D
:102B2400300830F198E01999999803180198F198B0
:102B3400663030666606333330081101986019999F
:102B44009999035881990198663032666606B333C1
:102B5400303E11F8FC600F8FCF0E018F03DDF8FCBF
:102B64003C781C3F3C031F9E780001FC0040018020
:102B7400000000000001FC00000000000000000054
:102B84000000010403400180000000000001040073
:102B94000000000000000000000000F8038003C0F3
:102BA400000000000000F800000000000000000029
:102BB4000000A81015000000000000000000000044
:102BC4000000000000000000000000000000000001
:102BD4000000000000000000000000000000003EB3
:102BE4007C0000000038000001800003E3B0E00333
:102BF400E7C000000E10004000001804000182002D
:102C040000C130A000E10000000B100020000018FB
:102C1400020000040000C1011100B100000009908D
:102C2400000000001800000000000062000300998A
:102C34000000000990FCF3DC3B1B0F00FD8F0F002C
:102C44006271E7C0990F3B3008D19999881D9D990D
:102C54008199999980643333008D199DD8087198AE
:102C640019D019998181998199803433330087016E
:102C74009998087198F8D019998F81998F9980340F
:102C840033F300870F99980830F198E019999980E7
:102C9400F1999980183303008319999808110198C0
:102CA4006019999981019999801833134081199970
:102CB400983E11F8FC603DDDCFC1F9CFCF00187903
:102CC400E183E10FDDDC0001FC004000000001FCB9
:102CD40000000000000000000000000001040340A8
:102CE40000000001040000000000C000000000001B
:102CF4000000F8038000000000F80000000000C09D
:102D0400000000000000E0101C00000000000000B3
:102D14000080000000000000000000000008000027
:102D2400000000000000000000000000010000009E
:102D3400000000000000000000100000000000007F
:102D4400001F3E00000000E01C0006003000700080
:102D54000000000E01C00000040F3F81E8070800D6
:102D6400200000601400060830003008000000064F
:102D7400014000000C0618C3180588001000046008
:102D840022000010000030040000000602200000B1
:102D94000E0618630804C80000000C60000000015F
:102DA4008000300000000006000000001606183302
:102DB4008804C87E79EE1F6C3C03F63CB07E361E58
:102DC400761F81E6C3CEC3F013061831C00468CC65
:102DD400CCC40C766606666730333B333B330367FB
:102DE4006667666013061830E00438CC0CE80C669D
:102DF40066066666303333333333030666666660CD
:102E040021861830700438CC7C680C667E066666B1
:102E14003033333333330306666666603F861832D5
:102E240038041878CC700C666003C66630333333CC
:102E3400331E0306666663C021C618621804088040
:102E4400CC300D66620406663033333333200326F8
:102E54006666640040C618C3181F08FC7E300677F7
:102E64003C07E73C783E7B9E7BBF01CF73CF77E086
:102E7400F1EF3F82F00000FE002000000007F000A8
:102E840000300000003F8000000007F00000000058
:102E94000000008201A000000004100000300000C7
:102EA4000020800000000410000000000000007CEE
:102EB40001C000000003E00000780000001F0000D3
:102EC400000003E0000000000000E8101D00000006
:102ED40000000000000000000000000000000000EE
:102EE40000000000000000000000000000000000DE
:102EF40000000000000000000000000000000000CE
:102F0400000000000000003E7C00000000000700FC
:102F1400003871800380700003870003E3B0E0038E
:102F2400E7C000000E10004000000005000018512A
:102F3400800180500001850000C130A000E1000044
:102F4400000B1000200000000880007C8800018035
:102F5400880001888000C1011100B10000000990BF
:102F640000000000000000001800000180000001C3
:102F740080000062000300990000000990FCF3DC6B
:102F84000EBB8F3B00F8F383B1B0F3B00F8F3B005F
:102F94006271E7C0990F3B3008D1999988199999C2
:102FA4009D81999981D9D999D819999D8064333390
:102FB400008D199DD808719819D019998199819912
:102FC400998199981998198199803433330087012C
:102FD4009998087198F8D019998F9981999981993C
:102FE40098F998198F99803433F300870F999808CA
:102FF40030F198E0199999998199998199999998B9
:103004001999998018330300831999980811019824
:103014006019999999819999819999999819999986
:103024008018331340811999983E11F8FC600F8F72
:10303400CFDDC0FCF3C3DDDCFDDC0FCFDDC01879D0
:10304400E183E10FDDDC0001FC00400180000000B1
:10305400000000000000000000000000000000006C
:103064000000000001040340018000000000600033
:1030740000000000000000000000C000000000008C
:103084000000F8038003C00000000060000000009E
:1030940000000000000000C00000000000007810E4
:1030A4000F0000000000000000000000000000000D
:1030B4000000000000000000000000000000000705
:1030C40023000000000600E00000060003C018E32F
:1030D40004000000060060000006000040186008BC
:1030E40000000000006000000000018030200000AB
:1030F400000000006000000000000030071E761F82
:1031040081EEEC6C0F76EE0F73C03003333B330368
:1031140026767606266606266030F3033333038666
:10312400666603466603466030631F333301C66632
:10313400660346660347E0186333331E00E666669B
:10314400034666034600186333332002666666014D
:10315400866601862007C79FBBBF03CF77770183AD
:10316400F70183C0000000003F8000000000000061
:1031740000000000000000208000000000000000AB
:103184000000000000001F0000000000000000001C
:10319400000038444040404438007C1010101010A7
:1031A40010004464544C4444440038444444544857
:1031B4003400384440405C443C00112A38043C4408
:1031C4003C007844447844447800784444E44444DB
:1031D4007800446C5444444444004448506050488B
:1031E4004400000038043C443C00102838043C44AB
:1031F4003C00404078444444440000004444444C6F
:103204003400100010301010180000107C1010143E
:1032140008000214001030101800100010301010B4
:103224001800102838043C443C0030104444443C0A
:103234000830000078444444440000007844444486
:103244004400102838043C443C00081044444438EA
:103254000830010238043C443C0000000000000037
:10326400000000007844444444000000784444448E
:10327400440000004444444C3400000000000000BA
:103284000000404078444444440000000000000032
:103294000000000068545454540000000000000072
:1032A4000000000078444478404000000000000022
:1032B400000040407844444444004040784444443E
:1032C40044000000000000000000000000000000B6
:1032D40000000000000000000000000000000000EA
:1032E40000000000000000000000000000000000DA
:1032F4000000007C101010101010000000000000EE
:1033040000000000000000000000000000000000B9
:103314000000007C101010101010000000000000CD
:103324000000007C101010101010000000000000BD
:103334000000000000000000000000384440380491
:103344004438007844444444447800446C5444442D
:1033540044440040407844444444000000000000D9
:103364000000004464544C44444400446C544444B9
:103374004444004040784444444400784444444431
:1033840044780000004444444C34004444447C44A5
:103394004444007C101010101010301602444444B1
:1033A4004C3402112838043C443C00000038447872
:1033B40040380804100010301018007C1010101051
:1033C4001010003844443C040438201000444444A1
:1033D4004C3410280038043C443C10280038043C89
:1033E400443C112A0038043C443C0004023A44445E
:1033F400443808104444443C083000000044444429
:103404004C340000007844444444000000384444F0
:103414004438000000784444444400444428106084
:1034240000100038444444380010001000103010DC
:10343400101800000078444444440000004444440C
:103444004C340000107C10101408001000103010D0
:10345400101803060C080000000000000010306083
:10346400C0806494F49497000000000008047E0473
:103474000800384440380444380000003844784098
:1034840038000000384040403800446C5444444400
:103494004400100010301010180000007844444418
:1034A40044004444447C44444400000038444444BC
:1034B400380000004444444C3400000058242020C8
:1034C40070007C10101010101000404078444444E8
:1034D400440006024444444C340040800000000090
:1034E40000007844444444447800000038043C44D8
:1034F4003C0000107C101014080000003844784090
:103504003800446C54444444440000003844444467
:1035140038000001E391919191000808CE0909490E
:1035240089004444442810101000000038447840B6
:103534003800000038043C443C000000582420209B
:103544007000384444447C44440000004444444CE7
:10355400340000107C101014080000003844444467
:1035640038004444447C44444400000038043C444F
:103574003C00000078444444440004043C44444473
:103584003C00446C54444444440010001030101077
:103594001800000044281028440000000000000027
:1035A40000000038444040404439004444447C44D2
:1035B40044440078444478444478007C101010104B
:1035C4001010004464544C444444003844403804CB
:1035D40044380078444478444478000000000000F3
:1035E4000000000000704848484A00000038043CCD
:1035F400443C00000038043C443C0006024444447B
:103604004C3424180038043C443C01020038043C87
:10361400443C00060238043C443C00000000000026
:103624000000000000000000000000100010301036
:10363400101800000000000000000000000000005E
:1036440000000000006854545454000000444444F2
:103654004C3400004444443C083038444040404426
:103664003800404078444444440030104444444CBE
:103674003400004464544C4444440040407844447E
:10368400444410280038043C443C0000107C1010D2
:103694001408384444444444380010305010101086
:1036A4007C003844041820407C0038440418044446
:1036B4003800081828487C0808007C407804044432
:1036C400380018204078444438007C040810202036
:1036D400200038444438444438003844443C040806
:1036E4003000003844444444443800103050101032
:1036F400107C003844041820407C0038440418042A
:10370400443800081828487C0808007C40780404E1
:1037140044380018204078444438007C04081020C1
:1037240020200038444438444438003844443C049D
:10373400083070888888888870002060A020202045
:10374400F800708808304080F800708808300888D5
:10375400700010305090F8101000F880F0080888BD
:103764007000304080F088887000F80810204040D5
:103774004000708888708888700070888878081085
:1037840060001C22222222221C0008182808080893
:103794003E001C22020C10203E001C22020C0222BD
:1037A4001C00040C14243E0404003E203C020222AB
:1037B4001C000C10203C22221C003E0204081010A5
:1037C40010001C22221C22221C001C22221E020485
:1037D4001800001C22222222221C00081828080893
:1037E400083E001C22020C10203E001C22020E0285
:1037F400221C00040C14243E0404003E203C02025B
:10380400221C000C10203C22221C003E0204081042
:103814001010001C22221C22221C001C22221E0228
:10382400041814151415161718191A1B1C1D010257
:103834000102030405060808090A0B0D0B0D0D0F00
:1038440010111313141416171718191A1B1D01013C
:103854000203040504050607080A0B0C0D0E0F10DD
:103864000E1010121214161618191A1B191B1B1CF1
:103874001D010303050607080809090A0B0C0E0FAE
:103884001011131412141415161719191B1B1D01EA
:103894001D0101030304060608080A0B140B0C0E91
:1038A4000E0F111112131416151717191A1B1D1DBB
:1038B400010102040204040607080A0A0C0C0D0E96
:1038C4000D0E0F1011131415171718191819191BA9
:1038D4001B1D01020404050706070709090B0D0D4A
:1038E4000F1011121112121414161718191A1C1D84
:1038F4001C1D1D010103040506070B0C0102030432
:1039040005060708090A0C0102030405060708094D
:10391400090A0B0C0102030405060708090A0B0C2B
:1039240001020304050608090A0B0C01020304053D
:1039340006060708090A0B0C01020304050607081A
:10394400090A0B0C01020304050708090A0B0C0100
:103954000203040405060708090A0B0C0102030408
:1039640005060708090A0B010103040506070809EF
:103974000A0B0C010202030405060708090A0B0CD2
:1039840001020304050607080A0B0C0102030405DF
:1039940006060708090A0B0C0102030405060708BA
:1039A400090A0B0C01020304050608090A0B0C01A1
:1039B4000203040505060708090A0B0C01020304A7
:1039C40005060708090A0B0C010203050607080986
:1039D4000A0B0C0A0C0A0A080807050503031F1F33
:1039E4001F1D1D1B1B19181816161413141312105F
:1039F400100E0D0D0C0B0A08090707050403011F1F
:103A04001D1D1C1A1C1A1A18171614141212111040
:103A140011100F0E0D0B0A0907070605060505030D
:103A2400031E1D1C1A1A191718171715151311112F
:103A34000F0E0D0C0D0C0C0A0A0807060504031DD5
:103A4400031F1E1D1D1B1A19181716141614131202
:103A540012100F0F0D0D0B0A0A09080606040303C2
:103A64001F1F1D1C1D1C1B191917161514141311C7
:103A74001311110F0E0D0B0A090908060807060594
:103A840004011E1D1C1C1A191A19181716141312D6
:103A940010100F170F0E0D0C0B0A08080605040270
:103AA400041F021E1E1D1B1B19190C010203040511
:103AB400060708090A0B0102030405060708090999
:103AC4000A0B0C0102030405060708090A0B0C0182
:103AD400020304050607080A0B0C01020304050689
:103AE400060708090A0B0C01020304050607080966
:103AF4000A0B0C01020304050608090A0B0C010257
:103B040003040405060708090A0B0C010203040553
:103B1400060708090A0B0C01020305060708090A2F
:103B24000B0C010202030405060708090A0B0C0129
:103B340002030405060708090A0C0102030405062A
:103B4400060708090A0B0C01020304050607080905
:103B54000A0B0C01020304050607090A0B0C0102F7
:103B640003040505060708090A0B0C0102030405F2
:103B7400060708090A0B0C01020304050708090AD1
:103B84000B0C00000002060200000000000104000B
:103B9400010002000200863B0A000400883B010089
:103BA4006002923B01007702943B0000F894EE27F8
:103BB400ECBBF1E0FBBFEBBFE5BFF8E1F1BDE1BD5C
:103BC4008DE0A2E0BB27ED938A95E9F780E098E0C9
:103BD400A0E6ED930197E9F7E6E9FBE3859195917A
:103BE400009761F0A591B59105901590BF01F00182
:103BF40005900D920197E1F7FB01F0CFEFE5EDBFE2
:103C0400E8E0EEBFC0E6D2E00C94FB26C798C79A62
:103C14000895C398C39A0895AA931A9310E810308C
:103C240051F0E981E095E12311F4C59801C0C59AEA
:103C3400F0DF1695F4CF188122960895C49ABB201C
:103C440011F00C948E1EE0E0E0936802E0936902A8
:103C54000E946C3010F00C948E1EE0916802F0917A
:103C640069023097A1F40E9477300E947C300E9450
:103C740084300E948A300E9484300E9492300E94D4
:103C840084300E949A30E953FD4FA081C5DF0E9421
:103C9400A230119791F40E94A7300E94A9300E948B
:103CA4008A300E94A9300E9492300E94A9300E945A
:103CB4009A30EA52FD4FA081AFDF0E94A2301297E2
:103CC40091F40E94A7300E94AF300E948A300E9473
:103CD400AF300E9492300E94AF300E949A30EB5174
:103CE400FD4FA08199DF0E94A230139791F40E94A6
:103CF400A7300E94B5300E948A300E94B5300E94DD
:103D040092300E94B5300E949A30EC50FD4FA08151
:103D140083DF0E94BB309CCFE1E0EB1581F5E0E04E
:103D2400E0936802E09369020E946C3040F530FE33
:103D340011C00E94C3300E9484300E94CF300E9480
:103D440084300E94DA300E9484300E94E530E953C6
:103D5400FD4F10C00E94C3300E94F0300E94CF304B
:103D64000E94F0300E94DA300E94F0300E94E53068
:103D7400E957FD4FA08150DF0E94BB30D5CF46DF0D
:103D8400E0916202E8BBC498A2E6B2E00E94F63079
:103D9400A0916202B0916302149729F4E0E0E093E9
:103DA4006202E09363020895A0918602A03011F0AC
:103DB400A530C1F431FC03C00E94FC3018F00E940D
:103DC40007310FC00E940D3119F40E94FC3008F035
:103DD40008C0EAE5F1E00E941231E55AFE4F0E9464
:103DE4002131EBC3A0918602A130C1F431FC03C0A0
:103DF4000E942C3118F00E9407310FC00E940D312F
:103E040019F40E942C3108F008C0EEEAF1E00E9497
:103E14001231E155FE4F0E942131CFC3A091860299
:103E2400A230C1F431FC03C00E94373118F00E9463
:103E340007310FC00E940D3119F40E94373108F088
:103E440008C0E2E3F2E00E941231ED5CFD4F0E94F3
:103E54002131B3C3A0918602A330C1F431FC03C065
:103E64000E94423118F00E9407310FC00E940D31A8
:103E740019F40E94423108F008C0E6EEF2E00E9414
:103E84001231E951FD4F0E94213197C3A09186025E
:103E9400A430C1F431FC03C00E944D3118F00E94DB
:103EA40007310FC00E940D3119F40E944D3108F002
:103EB40008C0EAE6F3E00E941231E559FC4F0E9483
:103EC40021317BC3A0918602A930C1F431FC03C027
:103ED4000E94583118F00E9407310FC00E940D3122
:103EE40019F40E94583108F008C0EEEAF3E00E9489
:103EF4001231E155FC4F0E9421315FC3A09186022B
:103F0400AA30C1F431FC03C00E94633118F00E944E
:103F140007310FC00E940D3119F40E94633108F07B
:103F240008C0E2E3F6E00E941231ED5CF94F0E9412
:103F3400213143C3A0918602AB30C1F431FC03C0EC
:103F44000E946E3118F00E9407310FC00E940D319B
:103F540019F40E946E3108F008C0E6E9F8E00E9406
:103F64001231E956F74F0E94213127C3A0918602EE
:103F7400AC30C1F431FC03C00E94793118F00E94C6
:103F840007310FC00E940D3119F40E94793108F0F5
:103F940008C0EAE6FAE00E941231E559F54F0E94A2
:103FA40021310BC3A0918602AD30C1F431FC03C0B2
:103FB4000E94843118F00E9407310FC00E940D3115
:103FC40019F40E94843108F008C0EEE3FCE00E947A
:103FD4001231E15CF34F0E942131EFC2A0918602BD
:103FE400AF30C1F431FC03C00E948F3118F00E943D
:103FF40007310FC00E940D3119F40E948F3108F06F
:1040040008C0E2E1FEE00E941231ED5EF14F0E9431
:104014002131D3C2A0918602A031C1F431FC03C086
:104024000E949A3118F00E9407310FC00E940D318E
:1040340019F40E949A3108F008C0E6EFFEE00E94ED
:104044001231E950F14F0E942131B7C2A09186028A
:10405400A131C1F431FC03C00E94A53118F00E94C3
:1040640007310FC00E940D3119F40E94A53108F0E8
:1040740008C0EAE0F0E10E941231E55FFF4E0E94C1
:1040840021319BC2A0918602A231C1F431FC03C04C
:104094000E94B03118F00E9407310FC00E940D3108
:1040A40019F40E94B03108F008C0EEEBF0E10E9470
:1040B4001231E154FF4E0E9421317FC2A091860249
:1040C400A331C1F431FC03C00E94BB3118F00E943B
:1040D40007310FC00E940D3119F40E94BB3108F062
:1040E40008C0E2E8F1E10E941231ED57FE4E0E9451
:1040F400213163C2A0918602A431C1F431FC03C012
:104104000E94C63118F00E9407310FC00E940D3181
:1041140019F40E94C63108F008C0E6E1F2E10E94F9
:104124001231E95EFD4E0E94213147C2A091860200
:10413400A531C1F431FC03C00E94D13118F00E94B2
:1041440007310FC00E940D3119F40E94D13108F0DB
:1041540008C0EAEDF2E10E941231E552FD4E0E94E0
:1041640021312BC2A0918602A631C1F431FC03C0D7
:104174000E94DC3118F00E9407310FC00E940D31FB
:1041840019F40E94DC3108F008C0EEE5F5E10E9464
:104194001231E15AFA4E0E9421310FC2A0918602D7
:1041A400A731C1F431FC03C00E94E73118F00E942A
:1041B40007310FC00E940D3119F40E94E73108F055
:1041C40008C0E2E4F7E10E941231ED5BF84E0E9470
:1041D4002131F3C1A0918602A831C1F431FC03C09E
:1041E4000E94F23118F00E9407310FC00E940D3175
:1041F40019F40E94F23108F008C0E6EBF8E10E94DD
:104204001231E954F74E0E942131D7C1A0918602A0
:10421400A931C1F431FC03C00E94FD3118F00E94A1
:1042240007310FC00E940D3119F40E94FD3108F0CE
:1042340008C0EAE9F9E10E941231E556F64E0E94FF
:104244002131BBC1A0918602AA31C1F431FC03C063
:104254000E94083218F00E9407310FC00E940D31ED
:1042640019F40E94083208F008C0ECE1FAE10E9457
:104274001231E35EF54E0E9421319FC1A091860266
:10428400AB31C1F431FC03C00E94133218F00E9418
:1042940007310FC00E940D3119F40E94133208F047
:1042A40008C0E0E4FBE10E941231EF5BF44E0E948F
:1042B400213183C1A0918602AC31C1F431FC03C029
:1042C4000E941E3218F00E9407310FC00E940D3167
:1042D40019F40E941E3208F008C0E4EBFCE10E94CD
:1042E4001231EB54F34E0E94213167C1A091860232
:1042F400AD31C1F431FC03C00E94293218F00E9490
:1043040007310FC00E940D3119F40E94293208F0C0
:1043140008C0E8EEFDE10E941231E751F24E0E941E
:1043240021314BC1A0918602AE31C1F431FC03C0EE
:104334000E94343218F00E9407310FC00E940D31E0
:1043440019F40E94343208F008C0ECE8F0E20E944C
:104354001231E357FF4D0E9421312FC1A0918602F3
:10436400AF31C1F431FC03C00E943F3218F00E9407
:1043740007310FC00E940D3119F40E943F3208F03A
:1043840008C0E0E5F2E20E941231EF5AFD4D0E94AE
:10439400213113C1A0918602A032C1F431FC03C0C3
:1043A4000E944A3218F00E9407310FC00E940D315A
:1043B40019F40E944A3208F008C0E4E8F3E20E94CB
:1043C4001231EB57FC4D0E942131F7C0A0918602B7
:1043D400A132C1F431FC03C00E94553218F00E948E
:1043E40007310FC00E940D3119F40E94553208F0B4
:1043F40008C0E8E1F6E20E941231E75EF94D0E943E
:104404002131DBC0A0918602A232C1F431FC03C089
:104414000E94603218F00E9407310FC00E940D31D3
:1044240019F40E94603208F008C0ECE5F7E20E943B
:104434001231E35AF84D0E942131BFC0A091860287
:10444400A332C1F431FC03C00E946B3218F00E9405
:1044540007310FC00E940D3119F40E946B3208F02D
:1044640008C0E0EBF8E20E941231EF54F74D0E94CD
:104474002131A3C0A0918602A432C1F431FC03C04F
:104484000E94763218F00E9407310FC00E940D314D
:1044940019F40E94763208F008C0E4E3FAE20E94BC
:1044A4001231EB5CF54D0E94213187C0A091860248
:1044B400A532C1F431FC03C00E94813218F00E947D
:1044C40007310FC00E940D3119F40E94813208F0A7
:1044D40008C0E8EBFBE20E941231E754F44D0E945D
:1044E40021316BC0A0918602A632C1F431FC03C015
:1044F4000E948C3218F00E9407310FC00E940D31C7
:1045040019F40E948C3208F008C0ECE0FDE20E942D
:104514001231E35FF24D0E9421314FC0A091860217
:10452400A732C1F431FC03C00E94973218F00E94F4
:1045340007310FC00E940D3119F40E94973208F020
:1045440008C0E0EDFEE20E941231EF52F14D0E94EC
:10455400213133C0A0918602A832C1F431FC03C0DA
:104564000E94A23218F00E9407310FC00E940D3140
:1045740019F40E94A23208F008C0E4EAF0E30E94B1
:104584001231EB55FF4C0E94213117C031FC03C09E
:104594000E94AD3218F00E9407310FC00E940D3105
:1045A40019F40E94AD3208F008C0E6E5F0E00E947C
:1045B4001231E95AFF4F0E942131089527FE7FC02E
:1045C40030FE3EC0E0E0E0937202E09373020E948A
:1045D400B8325097A0F5E0E0E0936A02E0936B02F2
:1045E4000E94BD320E94C232C0F40E94CA320E94AC
:1045F400CF32E957FD4F7E2F8F2FFD01E953FD4F39
:10460400E081EE0F6E2FF001E853FD4F0E94D83287
:10461400AAE6B2E00E94F630E3CFC6DB0E94CA32BB
:104624000E94E132E957FD4FBF01FD01E953FD4FFF
:104634000E94EF32A2E7B2E00E94F630C8CF3DC03C
:10464400E0E0E0937202E09373020E94B832509764
:10465400A0F5E0E0E0936A02E0936B020E94BD32B1
:104664000E94C232C0F40E94CA320E94CF32E9537F
:10467400FD4F7E2F8F2FFD01E957FD4FE081EE0F97
:104684006E2FF001E857FD4F0E94D832AAE6B2E03F
:104694000E94F630E3CF88DB0E94CA320E94E132E6
:1046A400E953FD4FBF01FD01E957FD4F0E94EF3271
:1046B400A2E7B2E00E94F630C8CFE89427F8089544
:1046C4000E94FD320E9402331197B1F427FC14C0FA
:1046D400A6E6B2E00E94F630A0916602B0916702AD
:1046E400189741F40E9407330E940F3319F40E9473
:1046F4001833BB240E9420331CC00E94FD320E9448
:1047040002331297B1F427FC14C0A6E6B2E00E946B
:10471400F630A0916602B0916702189741F40E94A6
:1047240007330E940F3319F40E941833BB240E94EC
:10473400203322960895A0918602A03011F0A5306E
:1047440029F4EAE5F1E00E942A3304C1A09186022B
:10475400A13029F4EEEAF1E00E942A33FBC0A091D3
:104764008602A23029F4E2E3F2E00E942A33F2C086
:10477400A0918602A33029F4E6EEF2E00E942A33E7
:10478400E9C0A0918602A43029F4EAE6F3E00E948D
:104794002A33E0C0A0918602A93019F4EEEAF3E0CE
:1047A400D4C0A0918602AA3019F4E2E3F6E0CDC0A9
:1047B400A0918602AB3019F4E6E9F8E0C6C0A091F6
:1047C4008602AC3019F4EAE6FAE0BFC0A091860292
:1047D400AD3019F4EEE3FCE0B8C0A0918602AF302E
:1047E40019F4E2E1FEE0B1C0A0918602A03119F40F
:1047F400E6EFFEE0AAC0A0918602A13119F4EAE036
:10480400F0E1A3C0A0918602A23119F4EEEBF0E12D
:104814009CC0A0918602A33119F4E2E8F1E195C0AD
:10482400A0918602A43119F4E6E1F2E18EC0A091D0
:104834008602A53119F4EAEDF2E187C0A09186025F
:10484400A63119F4EEE5F5E180C0A0918602A73106
:1048540019F4E2E4F7E179C0A0918602A83119F4D1
:10486400E6EBF8E172C0A0918602A93119F4EAE9F5
:10487400F9E16BC0A0918602AA3119F4ECE1FAE1E6
:1048840064C0A0918602AB3119F4E0E4FBE15DC0A1
:10489400A0918602AC3119F4E4EBFCE156C0A0917E
:1048A4008602AD3119F4E8EEFDE14FC0A091860215
:1048B400AE3119F4ECE8F0E248C0A0918602AF31C1
:1048C40019F4E0E5F2E241C0A0918602A03219F4A5
:1048D400E4E8F3E23AC0A0918602A13219F4E8E1D7
:1048E400F6E233C0A0918602A23219F4ECE5F7E2B5
:1048F4002CC0A0918602A33219F4E0EBF8E225C0A3
:10490400A0918602A43219F4E4E3FAE21EC0A09155
:104914008602A53219F4E8EBFBE217C0A0918602E7
:10492400A63219F4ECE0FDE210C0A0918602A73291
:1049340019F4E0EDFEE209C0A0918602A83219F450
:10494400E4EAF0E302C0E6E5F0E0E491F0E0349656
:10495400DF01D3DE08950E9430330E94952EA39484
:10496400AA2DBB27E2E2F0E00E948535AE2EE1E1FC
:10497400AE1618F4E1E0DE2E01C0DD24E1E0EB1513
:1049840011F4D9DE23C2442019F5CD9909C0A0E061
:10499400CD99A1E0E0E020FCE1E00E943E3309F47F
:1049A40005C08394E8E08E1608F08824CB9909C0EA
:1049B400A0E0CB99A1E0E0E026FCE1E00E943E33D8
:1049C40009F406C08A94EFEFE81511F4E7E08E2E9F
:1049D400882061F1C89903C00E94453309F417C0C7
:1049E400882466249924E0917402EA93E091750284
:1049F400EA93A09176020E941130E0917702EA9343
:104A04000E944C33A0917A020E9441300FC09A99BF
:104A140009C0A0E09A99A1E0E0E025FCE1E00E9451
:104A24003E3309F403C0882466249924882011F0B5
:104A34000C94AE25E4E7F2E0FA93EA93E5E7F2E0BA
:104A4400FA93EA93A6E7B2E00E94F82FE7E7F2E0D0
:104A5400FA93EA93E8E7F2E0FA93EA93E9E7F2E0FB
:104A6400FA93EA93AAE7B2E00E9422300E944C3300
:104A7400E0917A02EA93E1E8F2E0FA93EA93E2E859
:104A8400F2E0FA93EA93A3E8B2E00E94682FE0917F
:104A94008302F0E0E053F84FE0938402F093850240
:104AA400A0917602A03051F4A0917502A03031F4A7
:104AB400A0917402A63010F0A53108F007C0ED2DC6
:104AC400E03011F4909801C0909A01C09098C9996F
:104AD40009C0A0E0C999A1E0E0E024FCE1E00E9463
:104AE4003E3309F40AC0E1E04E2EE6E06E2E9E2E1F
:104AF4005394E2E0E51508F45524C89903C00E94D4
:104B0400453309F404C04424752C66249924E1E057
:104B1400E71519F0E2E0E71519F4E0E0E41509F00F
:104B24001AC0E6E06E2E9B9903C00E94533309F429
:104B340006C09394E4E0E91508F499240CC09C9908
:104B440003C00E945A3309F406C09A94EFEFE915A2
:104B540011F4E4E09E2E1EC1E1E0E81531F59B99C5
:104B640003C00E94533309F40DC0E0917A02EF5F51
:104B7400E0937A02A0917A02A43618F0EDE0E09373
:104B84007A0212C09C9903C00E945A3309F40CC0E3
:104B9400E0917A02E150E0937A02A0917A02AD307A
:104BA40018F4E3E6E0937A02F5C0E2E0E81531F5A3
:104BB4009B9903C00E94533309F40DC0E09179021C
:104BC400EF5FE0937902A0917902AD3018F0E1E053
:104BD400E093790212C09C9903C00E945A3309F4ED
:104BE4000CC0E0917902E150E0937902A09179023E
:104BF400A13018F4ECE0E0937902CCC0E3E0E815CE
:104C040031F59B9903C00E94533309F40DC0E09120
:104C14007802EF5FE0937802A0917802A03218F056
:104C2400E1E0E093780212C09C9903C00E945A33D9
:104C340009F40CC0E0917802E150E0937802A0916D
:104C44007802A13018F4EFE1E0937802A3C0E4E025
:104C5400E81531F59B9903C00E94533309F40DC044
:104C6400E0917702EF5FE0937702A0917702A8309A
:104C740018F0E1E0E093770212C09C9903C00E940F
:104C84005A3309F40CC0E0917702E150E0937702C3
:104C9400A0917702A13018F4E7E0E09377027AC09C
:104CA400E5E0E81531F59B9903C00E94533309F4FC
:104CB4000DC0E0917402EF5FE0937402A09174025E
:104CC400A83118F0E0E0E093740212C09C9903C08C
:104CD4000E945A3309F40CC0E0917402E150E0934D
:104CE4007402A0917402AF3F19F4E7E1E0937402F7
:104CF40051C0E6E0E81531F59B9903C00E94533397
:104D040009F40DC0E0917502EF5FE0937502A09184
:104D14007502AC3318F0E0E0E093750212C09C9980
:104D240003C00E945A3309F40CC0E0917502E150AB
:104D3400E0937502A0917502AF3F19F4EBE3E093A1
:104D4400750228C0E7E0E81529F59B9903C00E9485
:104D5400533309F40DC0E0917602EF5FE0937602DD
:104D6400A0917602AC3318F0E0E0E093760212C032
:104D74009C9903C00E945A3309F40CC0E091760256
:104D8400E150E0937602A0917602AF3F19F4EBE391
:104D9400E0937602E894CD99689420F8E8949B997E
:104DA400689421F8E8949C99689422F8E894C99945
:104DB400689424F8E894C899689423F8E894CB9903
:104DC400689426F8E8949A99689425F804C00E9497
:104DD40030330E94201EE991EFBFF991E991B99116
:104DE400A9919991899179916991F9901990099072
:104DF4001895E0E0EBBBEABBEFEFE8BBE7BBE0E014
:104E0400E5BBE4BBE2BBEFEFE1BBEDE0E3BFE0E019
:104E1400E2BFEFEAECBFE0E0EFBDEDE0EEBDE0E0C5
:104E2400EDBDECBDE7BDE6BDEBBDEFE0EABDE0E006
:104E3400E9BDE8BDE2E1E9BFE0E8E8B9E0E0E0BFF0
:104E44000E94EA34E0E0EA93E1E0EA93A0E00E9401
:104E5400E12F7894AAE00E94C82FE0938602E1E053
:104E6400BE2EE2E0E71519F0E0E0E71519F4E0E002
:104E7400E41509F018C2882011F00C945529BB20C0
:104E840011F00C945529A0917602A63019F0A432A1
:104E940009F0D1C1A0917802A13021F4A091790246
:104EA400A130C9F0A0918102AE3121F4A091820217
:104EB400AC3079F0A0918102A13031F0A23021F020
:104EC400A33011F0A43021F4A0918202A13009F0A2
:104ED40001C001C01BC00E94613311F4AAE014C0D8
:104EE4000E946A3311F4ADE00FC0A0917502BB2794
:104EF400E3E0F0E00E948535309711F4ACE004C0A3
:104F04000E94733311F4ABE002D794C10E9473334F
:104F140079F4A0917A02AD3059F4A0917902AC30C1
:104F240039F4A0917802AB3111F0AC3109F401C02D
:104F340003C0A9E0ECD67EC10E947C3341F4A09169
:104F44008102AF3021F4A0918202A13009F003C0A4
:104F5400AFE0DDD66FC10E947C3341F4A0918102A1
:104F6400AA3021F4A0918202A33009F003C0A0E189
:104F7400CED660C10E947C3341F4A0918102AF304F
:104F840021F4A0918202A43009F003C0A1E1BFD6AC
:104F940051C10E947C3341F4A0918102A53021F4D7
:104FA400A0918202A53009F003C0A2E1B0D642C1AB
:104FB4000E947C3341F4A0918102AF3021F4A0918E
:104FC4008202A73009F003C0A3E1A1D633C10E9435
:104FD4007C3341F4A0918102AF3021F4A09182028C
:104FE400A83009F003C0A4E192D624C10E94613321
:104FF40041F4A0917802A93021F4A0917902A13062
:1050040009F003C0A5E183D615C10E94613341F4C0
:10501400A0917802A33021F4A0917902A23009F082
:1050240003C0A6E174D606C10E94613341F4A09185
:105034007802AB3121F4A0917902A23009F003C0C7
:10504400A7E165D6F7C0A0917802AE3021F4A09113
:105054007902A23009F00BC00E94613311F4A8E177
:1050640004C00E946A3311F4A9E151D6E3C00E943E
:10507400613341F4A0917802A83021F4A09179021F
:10508400A33009F003C0AAE142D6D4C00E94613320
:1050940041F4A0917802AE3121F4A0917902A430B8
:1050A40009F003C0ABE133D6C5C00E94613341F4BB
:1050B400A0917802A13021F4A0917902A53009F0E1
:1050C40003C0ACE124D6B6C00E94613341F4A09180
:1050D4007802AD3021F4A0917902A53009F003C023
:1050E400ADE115D6A7C00E94613341F4A0917802C6
:1050F400A33121F4A0917902A53009F003C0AEE1F7
:1051040006D698C00E94613341F4A0917802A13080
:1051140021F4A0917902A63009F003C0AFE1F7D5DC
:1051240089C00E94613341F4A0917802A13121F435
:10513400A0917902A63009F003C0A0E2E8D57AC0B4
:105144000E94613341F4A0917802AC3121F4A09122
:105154007902A63009F003C0A1E2D9D56BC00E9440
:10516400613341F4A0917802AB3121F4A09179022A
:10517400A73009F003C0A2E2CAD55CC00E94613323
:1051840041F4A0917802A23021F4A0917902A930CF
:1051940009F003C0A3E2BBD54DC00E94613341F4C2
:1051A400A0917802A13021F4A0917902AA3009F0EB
:1051B40003C0A4E2ACD53EC00E94613341F4A09187
:1051C4007802A43121F4A0917902AB3009F003C034
:1051D400A5E29DD52FC00E94613341F4A0917802CD
:1051E400A13021F4A0917902AC3009F003C0A6E209
:1051F4008ED520C00E94613341F4A0917802A6317B
:1052040021F4A0917902AC3009F003C0A7E27FD564
:1052140011C00E94613341F4A0917802A83121F4B5
:10522400A0917902AC3009F003C0A8E270D502C0A5
:10523400E1E09E2E38C0A0917602A93011F0A73289
:1052440019F4E2E09E2E2FC0A0917602AC3011F04A
:10525400AA3219F4E3E09E2E26C0A0917602AF3064
:1052640011F0AD3219F4E4E09E2E1DC0A091760237
:10527400A23111F0A03311F4992415C0A091740245
:10528400A73141F4A0917502AB3321F4A0917602C9
:10529400AB3309F008C0A0918602A93010F4A932FA
:1052A40010F4A6E034D5E1E0EB1539F4CC2486D92A
:1052B400A9E1B0E00E943B3528C5882011F00C9488
:1052C400802CE1E0E41511F00C94042A5520A9F592
:1052D4000E9485330E940233189770F50E948B3325
:1052E400EA5BFA4C0E9493330E949A33E25BFA4CD5
:1052F4000E9493330E94A233EA5AFA4C0E949333D9
:105304000E94AA33E25AFA4CE491EC93DD2029F48A
:105314000E94B2330E94B73302C00E94C0330E947D
:10532400C633FF93EF930E94CA33AF91BF910E949B
:10533400D5330E94E133CECF64C0E1E0E51599F5A1
:105344000E9485330E940233189760F50E948B33C4
:10535400EA59FA4C0E9493330E949A33E259FA4C68
:105364000E9493330E94A233EA58FA4C0E9493336A
:105374000E94AA33E258FA4CE491EC93DD2019F42C
:105384000E94E43302C00E94C0330E94C633FF93DC
:10539400EF930E94CA33AF91BF910E94D5330E940C
:1053A400E133D0CF2EC00E9485330E940233189778
:1053B40040F50E948B33EA57FA4C0E9493330E94C3
:1053C4009A33E257FA4C0E9493330E94A233EA566E
:1053D400FA4C0E9493330E94E633DD2019F40E94B4
:1053E400E43302C00E94C0330E94C633FF93EF939C
:1053F4000E94CA33AF91BF910E94D5330E94E1331A
:10540400D4CF7BC2E0E0E61519F0E91509F084C0B9
:105414000E9485330E940233189710F00C948D2A51
:105424000E94EB330F01E0917B020E94EF33EA56B6
:10543400F94CE491D001EC930E94C0330E94F43300
:105444000F01E0917E020E94EF33EA5CF84CE49194
:10545400D001EC930E94C6330F01E0917D020E94BB
:10546400EF330E94F833E951FD4F0F01E0917C02C4
:105474000E94EF33EA57F84CE491D0010E94FE33C6
:105484000F01E09180020E94EF330E94F833E9504B
:10549400FD4F0F01E0917F020E94EF33EA56F94C71
:1054A400E491D0010E940334A0E0A083DD2081F5C3
:1054B4000E94B2337096E131A0E0FA0729F4E0913A
:1054C400D802EF5FE093D8020E94B2337096E231C3
:1054D400A0E0FA0729F4E091D902EF5FE093D90242
:1054E4000E94B2337096E531A0E0FA0729F4E09106
:1054F400DC02EF5FE093DC020E94B2337096E63187
:10550400A0E0FA0729F4E091DD02EF5FE093DD0209
:105514000E94E1337FCFF1C1E1E0E61519F0E9150E
:1055240009F086C00E9485330E940233189710F058
:105534000C94192BA0917702A130C1F50E948B33F2
:10554400E25AF94C0E949333E153FD4FDF010E946C
:10555400B233EA58F94C0E9493330E949A33EA59C1
:10556400F94C0E949333E152FD4FDF010E94B233A4
:10557400E258F94C0E9493330E94A233E259F94C49
:105584000E949333E151FD4FDF010E94B233EA5789
:10559400F94C0E9493330E94E6330E940834DF01E1
:1055A4000E94B233E257F94CE4913DC00E948B3320
:1055B400EA53FB4C0E949333E153FD4FA0E0A083D8
:1055C4000E940C34E253FB4C0E949333E152FD4F92
:1055D400FF93EF930E940E34E256FA4CE491AF919C
:1055E400BF910E941334EA52FB4C0E949333E15161
:1055F400FD4FFF93EF930E940E34E252FA4CE49174
:10560400AF91BF910E941634E252FB4C0E94933337
:10561400E150FD4FFF93EF930E940E34E25EF94C8C
:10562400E491AF91BF91EC930E94E1337DCF65C1CA
:10563400E2E0E61519F0E91509F08AC00E94853305
:105644000E940233189710F00C94A92B0E94EB339C
:10565400FF93EF930E941934EA56F94CE491AF9109
:10566400BF91EC930E94B233E153FD4FFF93EF934C
:10567400A2E00E942434EA51F94CE491AF91BF9125
:10568400EC930E94F433FF93EF930E942734EA5C77
:10569400F84CE491AF91BF91EC930E94C633FF9311
:1056A400EF93A0E00E942434EA51F94CE491AF91C5
:1056B400BF91EC930E94B233E951FD4FFF93EF93F6
:1056C4000E943034EA57F84CE491AF91BF910E94A4
:1056D400FE33FF93EF930E943934EA51F94CE4917D
:1056E400AF91BF91EC930E94B233E950FD4FFF9309
:1056F400EF930E944234EA56F94CE491AF91BF9182
:105704000E940334FF93EF930E944B34EA51F94C07
:10571400E491AF91BF91EC930E94B2337096E33160
:10572400A0E0FA0729F4E091DA02ED5FE093DA02EF
:105734000E94B233B096E332A0E0FA0729F4E09174
:10574400EA02E058E093EA020E94E13379CFD5C03F
:10575400E3E0E61519F0E91509F05AC00E94853313
:105764000E940233189710F00C94092C0E94EB331A
:10577400FF93EF93A09181020E945434EA56F94CAE
:10578400E491AF91BF91EC930E94C0330E94F43333
:10579400FF93EF93A09181020E945B34EA5CF84C82
:1057A400E491AF91BF91EC930E94C633DF010E9454
:1057B400B233EA5AFB4C0E9493330E94A233E25A5A
:1057C400FB4C0E949333E151FD4FFF93EF93A09163
:1057D40082020E945434EA52F84CE491AF91BF9192
:1057E4000E941634EA59FB4C0E949333E150FD4F5A
:1057F400FF93EF93A09182020E945B34EA51F94C2B
:10580400E491AF91BF91EC930E94E133A9CF75C0AD
:10581400E4E0E61519F0E91509F06FC00E9485333C
:105824000E940233189710F00C947F2C0E94EB33E3
:10583400FF93EF930E946234EA56FE4CE491AF91D9
:10584400BF91EC930E94B233E153FD4FFF93EF936A
:105854000E946534EA52FD4CE491AF91BF91EC9300
:105864000E94F433FF93EF930E946234EA51FE4C9A
:10587400E491AF91BF91EC930E94C633FF93EF93F1
:105884000E946534EA5CFC4CE491AF91BF91EC93C7
:105894000E94B233E951FD4FFF93EF930E946234AB
:1058A400EA5CFD4CE491AF91BF910E94FE33FF93FB
:1058B400EF930E946534EA56FC4CE491AF91BF919A
:1058C400EC930E94B233E950FD4FFF93EF930E9493
:1058D4006234EA57FD4CE491AF91BF910E940334C6
:1058E400FF93EF930E946534EA50FC4CE491AF912E
:1058F400BF91EC930E94E13393CF07C2E1E0E81536
:1059040011F00C94C62C0E9485330E940233189720
:10591400D0F50E948B33EA5DFA4CE491EC93DD20E0
:1059240019F40E94E43302C00E94C0330E940C3474
:10593400E25DFA4C0E949333E152FD4FFF93EF93E3
:105944000E943934EA51F94CE491AF91BF910E941D
:105954001334EA5CFA4C0E949333E151FD4FFF93F8
:10596400EF930E944B34EA51F94CE491AF91BF910B
:105974000E941634E25CFA4C0E9493330E94703405
:105984000E94E133C2CFC1C1E2E0E81511F00C94EA
:105994000C2D0E9485330E9402331897D0F50E9483
:1059A4008B33EA5FFA4CE491EC93DD2019F40E9406
:1059B400E43302C00E94C0330E940C34E25FFA4C0C
:1059C4000E949333E152FD4FFF93EF930E943034D2
:1059D400EA51F94CE491AF91BF910E941334EA5E0D
:1059E400FA4C0E949333E151FD4FFF93EF930E94D1
:1059F4004234EA51F94CE491AF91BF910E941634BC
:105A0400E25EFA4C0E9493330E9470340E94E133A8
:105A1400C2CF7BC1E3E0E81511F00C94522D0E9433
:105A240085330E9402331897D0F50E948B33EA51D4
:105A3400FB4CE491EC93DD2019F40E94E43302C0A2
:105A44000E94C0330E940C34E251FB4C0E949333F9
:105A5400E152FD4FFF93EF930E941934EA51F94C40
:105A6400E491AF91BF910E941334EA50FB4C0E9421
:105A74009333E151FD4FFF93EF930E942734EA5192
:105A8400F94CE491AF91BF910E941634E250FB4C63
:105A94000E9493330E9470340E94E133C2CF35C117
:105AA400E4E0E81511F00C94A42D0E9485330E94C3
:105AB4000233189710F00C94A32D0E948B33EA53F1
:105AC400FB4CE491EC93DD2019F40E94E43302C012
:105AD4000E94C0330E940C34E253FB4C0E94933367
